:1000000049C000C2D1C361C09BC35FC05EC05DC0B8
:100010005CC05BC05AC059C0A4C357C056C00403DB
:100020000904120361006B0061005F004C00550081
:1000300058005F00160344006100740061004B002B
:1000400069006C006C006500720012011001000074
:100050000008C016DF0500010102000109022200AC
:10006000010100C06409040000010300000009212F
:10007000010100012216000705810308000A06009D
:10008000FF0901A101150026FF00750895800900F0
:10009000B20201C011241FBECFE5D1E0DEBFCDBF4B
:1000A00010E0A0E6B0E0EEE0FBE002C005900D92AB
:1000B000A436B107D9F720E0A4E6B0E001C01D9254
:1000C000AC3AB207E1F7E7D320C59ACF85B7826093
:1000D00085BF8BB780648BBF8BE4809382008AE5F9
:1000E0008093810008951F93DC01162F8091810079
:1000F00084FF07C08091820098E88927809382005E
:1001000003C08AE580938100912FE3E8F0E08D91B0
:10011000819391501916DCF383E890E0612F5BD155
:100120001C5F109381001F9108951F93CF93DF935D
:1001300060919200635067FDC2C080918F00CCE057
:10014000D0E0C81BD109CA56DF4F80918E008D3296
:1001500009F09FC0683009F0ACC083EC8093760052
:100160008AE580936000109265009881892F8076DF
:1001700039F0CE0135D3282F8F3F09F479C07FC0E5
:100180002A8110927F008981882349F49F7119F494
:1001900081E080937F001092800022E062C0853071
:1001A00019F4209393005CC0863009F045C08B8120
:1001B000813019F48AE490E01BC0823041F48CE570
:1001C00090E0909391008093900022E231C08330C0
:1001D000D1F48A81882341F48EE190E090939100DC
:1001E0008093900024E024C0813041F482E290E0CA
:1001F000909391008093900022E11AC08230B9F46C
:1002000084E390E00EC0813241F48EE690E090935A
:1002100091008093900029E00BC0823241F48EE778
:1002200090E0909391008093900026E101C020E03F
:1002300080E48093650023C0883021F421E085E9C3
:1002400090E011C0893019F42093950009C08A30DC
:1002500011F421E006C08B3019F48BE48093820006
:1002600020E08FE790E0909391008093900007C08A
:10027000888187FD2E8180E88093650006C08F818C
:10028000882319F48E81821708F0822F80936100F1
:1002900010C08091650087FF0CC0CE0111D28F3F46
:1002A00021F48EE18093600004C0882311F0109245
:1002B000610080919200181614F4109292008091BF
:1002C000600084FF58C0809161008F3F09F453C0E3
:1002D000182F893008F018E0811B8093610080910D
:1002E000760098E8892780937600112391F1809118
:1002F000650087FF08C087E790E0612F06D2182FBE
:10030000893098F526C0209190003091910086FFA9
:100310000DC0A7E7B0E080E090E0F901E80FF91F19
:10032000E491ED9301961817C1F708C0912FD901F8
:10033000E7E7F0E08D9181939150E1F71150812F23
:1003400090E01F5F0196820F931F9093910080931E
:10035000900087E790E0612F3ED0612F6C5F6C309A
:1003600041F08FEF8093610004C08FEF80936100B4
:100370006EE16093600094E186B3857031F4915032
:10038000D9F71092930010928D0010E0992309F490
:1003900011E080916400811729F0112309F434D20F
:1003A00010936400DF91CF911F910895A82FB92F6A
:1003B00080E090E041E050EA609530E009C02D9186
:1003C00082279795879510F084279527305EC8F38C
:1003D0006F5FA8F30895EADF8D939D930895A6E0DB
:1003E00088279927AA9569F00197E1F3B099FCCF86
:1003F000B09BFECF81E09927A6B3019611F0A570BE
:10040000D9F70895CF93CFB7CF93C395B09BE9F7B2
:10041000B09B0BC0B09B09C0B09B07C0B09B05C090
:10042000B09B03C0B09B01C0D5C00F92DF93C091B9
:100430008F00DD27CA56DF4F012EB09B03C0DF912E
:100440000F90E6CF2F930F931F934F932FEF4F6F84
:1004500006B300FB20F95F933F9350E03BE065C09B
:1004600016B30126502950FDC89556B3012700FB4D
:1004700025F92F7306B3B1F05027102710FB26F98A
:1004800006B22230F0F000C016B3012700FB27F9B6
:100490000126502906B22430E8F54F77206816B3BC
:1004A0000000F6CF50274F7D206206B2102F0000CB
:1004B00000C006B300265029102710FB26F906B20B
:1004C000E2CF4F7B06B3206400C0DACF012650296B
:1004D000157006B269F14E7F2160012F16B328C056
:1004E000002650294D7F06B22260102F29C0012618
:1004F00050294B7F06B22460012F2DC016B3012670
:100500005029477F2860000006B22EC04F7E06B3F8
:10051000206130C0422706B3499300265029102796
:1005200006B24FEF10FB20F9297F16B379F2157050
:1005300059F10126502906B2012700FB21F9237F3A
:1005400006B371F2002650293150D0F006B21027C0
:1005500010FB22F9277E16B351F2012650290127FC
:1005600000FB06B223F92F7C49F2000006B31027E6
:1005700010FB24F90026502906B22F7939F270CFEA
:1005800010E41ABF002719C03B503195C31BD0405F
:1005900010E41ABF0881033C09F10B34F9F02091F3
:1005A0008D001981110F1213EDCF4A81441F0936B6
:1005B00051F10D3211F0013E29F7009394003F9163
:1005C0005F914F911F910F912F91DF910F90CAB7BB
:1005D000C6FD1BCFCF91CFBFCF911895209194002E
:1005E000222369F310919200112379F534307AF1C6
:1005F0003093920020938E0010918F003BE0311BCE
:1006000030938F0024C0009192000130F4F40AE589
:100610004F7049F43091600034FD1AC000936000BF
:10062000C6E7D0E019C03091810034FD11C00093BD
:100630008100C2E8D0E010C0052710E000C021C052
:10064000052710E0C89508BB14C03AE501C032ED9B
:10065000032EC0E0D0E032E017B31560C09A08B3B3
:1006600017BB55E020E84FEF20FF052708BB279573
:1006700017951C3F28F700004552B0F720FF0527CB
:10068000279508BB17951C3FB8F629913A9561F755
:100690000A7F10919300110F08BBC250D04011F097
:1006A00010938D0010E41ABF016017B31A7F402F1A
:1006B0004A7F54E05A95F1F708BB17BB48BB7FCF80
:1006C000CF93C62F209174002223E9F0209174006B
:1006D000261710F4C0917400609175004C2F50E003
:1006E00070E0FDD1809175008C0F80937500809132
:1006F00074008C1B809374009091740081E09111C0
:1007000080E0CF91089581E0FCCFCF93C62F209158
:100710007400261710F4C0917400609175004C2F7E
:1007200050E070E0C5D1809175008C0F809375000A
:10073000809174008C1B8093740080E0CF910895A9
:100740008F938FB78F939F9380917300882321F0AD
:1007500088B398E0892788BB9F918F918FBF8F9135
:1007600018951F921FB61F9211248F9380916E00CF
:100770008F5F80936E0081B5806481BD809173002E
:10078000882329F0809167008F5F809367008091B4
:100790006700823021F410927300C498BC988F9146
:1007A0001F901FBE1F9018951F921FB61F921124F5
:1007B0008F93809171008F5F8093710080917100A1
:1007C000863048F081E0809373001092710010929F
:1007D0006200BC9AC49A8F911F901FBE1F901895FB
:1007E000FC0180818076803269F48181813031F42E
:1007F00080937400109275008FEF0895893011F482
:1008000081E0F6CF80E00895DF92EF92FF920F93A0
:100810001F93CF93DF93F89488E0E82EF12CC0E08B
:10082000D0E8DD2EDC0ED1BEDADD8C01043389E0A8
:1008300018070CF4CD2DD69581E0E81AF10889F758
:100840008FEF8C0F81BFEC2EF12C8FEFE81AF80A96
:1008500081B78E151F0471F06CF0C1BF789461B739
:100860008AE090E0DF91CF911F910F91FF90EF9080
:10087000DF903DC1B4DD8453994097FF03C091954B
:10088000819591098017910714F4C1B78C0181B744
:100890008F5F81BFDDCF82E1C82E92E1992ED1E03A
:1008A00020E8B22E32E3A32EDD24D394C1E002E08F
:1008B00010E0EE24E394F12C14BE0FB6F894A89542
:1008C00081B5886181BD11BC0FBE95BEF8941092B0
:1008D00073001092720010927100D0936200109217
:1008E000700010926F0010926E0010926D001092C6
:1008F0006C0010926B0010926A00109269001092C6
:100900006800109267001EB81DB8B8B882E087B9B9
:1009100097E096B913B880BD17BA18BABB9AC398B6
:10092000A99A89B7846089BF8BB780628BBF1CBCD2
:10093000D0BF789488E199E20FB6F894A89581BD6C
:100940000FBE91BD81B5806481BD8091670082300A
:1009500018F010927300B0CF80916200882329F0C4
:10096000A5BE78948895C5BE14BE80916E0088237C
:1009700071F110926E00BC9AC49A8CE190E10197DB
:10098000F1F700C00000C498BC98C498BC98379A8E
:1009900092E59A95F1F700C0369A36994DC037988E
:1009A00080916800882309F474C0BC9AC49A80912D
:1009B0006C0090916D00019751F410926200C09309
:1009C0007000C0936F0010936D0000936C008091D5
:1009D0007000882309F4B9CF80916F008823D1F08B
:1009E0008AE090E074D080936600809166008F3F2B
:1009F00019F08091660081BFB89A109272008091C0
:100A00007200843108F448C0B898F8945FDB789499
:100A100010926F008ADB90E080E059D08C3A09F0A8
:100A200094CF61E890E080E062D0D09273001092A1
:100A30006200BC9AC49A89CF22E52A95F1F700C0DA
:100A400010926B0010926A0084B195B190936B0084
:100A500080936A0080916A0090916B008139914087
:100A600070F0C093680080916C0090916D00892BAC
:100A700009F093CFF0926D00E0926C008ECF10924F
:100A8000680080916C0090916D00029709F085CF0D
:100A900013CFC498BC988BCF82EB91EF0197F1F7FD
:100AA00000C00000809172008F5F80937200A7CF1A
:100AB000DC01862FE82FE199FECF1FBA05C0EEBBFF
:100AC000E09AE3950DB20D924150C8F70895E1996F
:100AD000FECF1FBA8EBBE09A99278DB30895DC0133
:100AE000862F02C02D9104D04150E0F70895262FA3
:100AF000E199FECF1CBA1FBA8EBB2DBB0FB6F8947E
:0E0B0000E29AE19A0FBE01960895F894FFCF95
:040B0E005AFF010089
:00000001FF
